S01A0000536D61727420486F6D652050726F6A6563742E7372656363
S11300000C942A000C94F9000C94D0000C94340045
S11300100C9434000C9434000C9434000C9434008C
S11300200C9434000C9434000C9434000C9434007C
S11300300C9434000C9434000C9434000C9434006C
S11300400C9434000C9434000C9434000C9434005C
S11300500C94340011241FBECFE5D8E0DEBFCDBF21
S11300600E9404020C94DA020C94000087B18064AC
S113007087B986B1806886B986B1846086B90895E7
S113008097B1907E892B87B986B1806486B9349BF9
S1130090FECF83E08A95F1F7000024B185B190E0AA
S11300A0982F8827820F911D08958130910531F48E
S11300B02AB328602ABB2BB328602BBB823091055E
S11300C031F42AB320612ABB2BB320612BBB8330CC
S11300D0910531F42AB320622ABB2BB320622BBBD7
S11300E08430910531F42AB320642ABB2BB32064F5
S11300F02BBB059731F48AB380688ABB8BB38068C5
S11301008BBB08958130910531F42AB3277F2ABB34
S11301102BB3277F2BBB8230910531F42AB32F7E7A
S11301202ABB2BB32F7E2BBB8330910531F42AB32A
S11301302F7D2ABB2BB32F7D2BBB8430910531F44B
S11301402AB32F7B2ABB2BB32F7B2BBB059731F410
S11301508AB38F778ABB8BB38F778BBB089584B3B5
S1130160886184BB85B3886085BB85B38F7E85BB7E
S1130170089584B3886184BB85B3877F85BB85B3C9
S11301808F7E85BB089594B3906694BB95B39062BB
S113019095BB99E695BD91B3906891BB83BD0895D5
S11301A01F920F920FB60F9211242F933F934F93E8
S11301B08F939F9320E030E00FC09BB380E28927A8
S11301C08BBB4FE986E891E0415080409040E1F7D5
S11301D000C000002F5F3F4F2730310574F39F911B
S11301E08F914F913F912F910F900FBE0F901F90C1
S11301F018951F920F920FB60F9211248F938BB301
S11302008F7D8BBB8F910F900FBE0F901F90189511
S11302108FB58E7F8FBD8FB582608FBD8EB58860A0
S11302208EBD8EB580618EBD8FB58F7B8FBD8FB532
S113023080688FBD81B3806281BB81B3806881BBDC
S113024008958EB581608EBD8EB582608EBD8EB5EB
S11302508B7F8EBD0895BC0181E090E00E94C602B0
S113026028EE33E0629FA001639F500D729F500DF2
S11302701124429FC001439F900D529F900D112461
S113028099230CF4039695958795959587950197F1
S113029097BD86BD08958A35910531F0843B91055B
S11302A041F0892B79F40AC086E791E09BBD8ABDB1
S11302B0089583EF91E09BBD8ABD089589EF90E096
S11302C09BBD8ABD08950E94080182E390E00E94CC
S11302D02B010E942101089584EB90E00E944B01C0
S11302E0089580E090E00E944B01089587B38F7DCC
S11302F087BB87B38F7787BB87B38F7E87BB87B373
S1130300806487BB86B38F7E86BB8DB180648DB9D4
S11303108DB18F7E8DB98DB181608DB986B38061C9
S113032086BB08958FB9779BFECF08958FEF8FB961
S1130330779BFECF8FB108950F931F93CF93DF93D5
S1130340CDB7DEB728970FB6F894DEBF0FBECDBF8A
S113035020E030E013C06AE070E00E94C602F901B8
S1130360EE0FFF1F41E050E04C0F5D1FE40FF51F3F
S113037091838083862F972F2F5F3F4F2430310541
S113038054F304E010E083E090E01AC0FC01EE0FA7
S1130390FF1F21E030E02C0F3D1FE20FF31F2081EF
S11303A03181232B29F4009731F09C01C80105C049
S11303B020E030E002C020E030E08C01C901019768
S11303C0992324F714C0F801EE0FFF1F41E050E019
S11303D04C0F5D1FE40FF51F80810E94920187EA94
S11303E091E60197F1F700C00000015011091123B3
S11303F054F728960FB6F894DEBF0FBECDBFDF9139
S1130400CF911F910F9108950E9436000E947601AA
S11304100E9463018AB38B7F8ABBD0E00E9496015D
S1130420C82F82E090E00E9440008C01C13021F48A
S113043081E090E00E945500C23021F481E090E018
S11304400E948200C33021F482E090E00E945500B3
S1130450C43021F482E090E00E948200C53021F48F
S113046083E090E00E945500C63021F483E090E0E0
S11304700E948200C73021F484E090E00E9455007D
S1130480C83021F484E090E00E948200C93021F455
S113049085E090E00E945500C11104C085E090E021
S11304A00E948200CA3021F480E090E00E94C300E0
S11304B0CB3021F482E390E00E94C300CC3021F4DD
S11304C084E690E00E94C300CD3021F486E990E0F8
S11304D00E94C300CE3021F48AEF90E00E94C30052
S11304E0CF3009F4D0E0C03A19F40E94AF00D1E053
S11304F0C13A19F40E94B900D1E0C23A81F424EF60
S113050031E0029FC001039F900D129F900D1124B2
S11305106FEF73E00E94B202CB010E949C01C33AC8
S113052011F40E946C01C43A11F40E947101D111BA
S113053075CF84EF91E0089F7001099FF00C189F1C
S1130540F00C112483EEE81683E7F80610F00E94FD
S1130550AF008BEEE81683E5F80608F05FCF0E9443
S1130560B9005CCFAA1BBB1B51E107C0AA1FBB1F6C
S1130570A617B70710F0A61BB70B881F991F5A952B
S1130580A9F780959095BC01CD01089597FB072E9E
S113059016F4009407D077FD09D00E94B20207FC3C
S11305A005D03EF4909581959F4F0895709561957F
S10B05B07F4F0895F894FFCF7A
S9030000FC
