S01A0000536D61727420486F6D652050726F6A6563742E7372656363
S11300000C942A000C946A000C9441000C943F0058
S11300100C943F000C943F000C943F000C943F0060
S11300200C943F000C943F000C943F000C943F0050
S11300300C943F000C943F000C943F000C943F0040
S11300400C943F000C943F000C943F000C943F0030
S11300500C943F0011241FBECFE5D8E0DEBFCDBF16
S113006011E0A0E6B0E0E4ECFBE002C005900D92E4
S1130070AE39B107D9F70E94B0020C94E0050C9494
S113008000001F920F920FB60F9211242F933F93EB
S11300904F938F939F9320E030E00FC09BB380E297
S11300A089278BBB4FE986E891E04150804090401E
S11300B0E1F700C000002F5F3F4F2730310574F394
S11300C09F918F914F913F912F910F900FBE0F9061
S11300D01F9018951F920F920FB60F9211248F93B1
S11300E08BB38F7D8BBB8F910F900FBE0F901F90A2
S11300F0189584B3816084BB84B3826084BB84B369
S1130100846084BB84B3886084BB84B38F7E84BBE7
S113011084B38F7D84BB84B38F7B84BB84B38F779C
S113012084BB85B3806185BB85B3806285BB85B3A1
S1130130806485BB85B3806885BB08958130910553
S1130140B9F01CF4892B39F0089582309105E9F057
S1130150039741F1089585B38E7F85BB85B3826093
S113016085BB85B3846085BB85B3886085BB0895F2
S113017085B38D7F85BB85B3816085BB85B3846082
S113018085BB85B3886085BB089585B38B7F85BBAC
S113019085B3816085BB85B3826085BB85B3886088
S11301A085BB089585B3877F85BB85B3816085BB97
S11301B085B3826085BB85B3846085BB08950F9346
S11301C01F93CF9300E010E0CFEF6EC00F5F1F4F7F
S11301D080E090E00E949E009C9904C09C9BFECF0E
S11301E0C7E311C09D9904C09D9BFECFC8E30BC01B
S11301F09E9904C09E9BFECFC9E305C09F9903C08E
S11302009F9BFECFCFE281E090E00E949E009C99EC
S113021004C09C9BFECFC4E311C09D9904C09D9B68
S1130220FECFC5E30BC09E9904C09E9BFECFC6E3E0
S113023005C09F9903C09F9BFECFCAE282E090E075
S11302400E949E009C9904C09C9BFECFC1E311C0F8
S11302509D9904C09D9BFECFC2E30BC09E9904C030
S11302609E9BFECFC3E305C09F9903C09F9BFECF17
S1130270CDE283E090E00E949E009C9904C09C9B88
S1130280FECFC3E411C09D9904C09D9BFECFC0E383
S11302900BC09E9904C09E9BFECFCDE305C09F99E1
S11302A003C09F9BFECFCBE2CF3F21F40330110567
S11302B00CF48CCF8C2FCF911F910F9108959BB389
S11302C09F70282F207F922B9BBB98B3926098BB82
S11302D098B39B7F98BB98B3986098BB00C000000C
S11302E098B3977F98BB32E43A95F1F700C02BB3EB
S11302F030E1839FC0011124922F9F70892B8BBB07
S113030088B3886088BB00C0000088B3877F88BB3F
S11303108DEE92E00197F1F700C0000008959BB3C1
S11303209F70282F207F922B9BBB98B39D7F98BBF7
S113033098B39B7F98BB98B3986098BB00C00000AB
S113034098B3977F98BB32E43A95F1F700C02BB38A
S113035030E1839FC0011124922F9F70892B8BBBA6
S113036088B3886088BB00C0000088B3877F88BBDF
S11303708DEE92E00197F1F700C00000089580EC43
S11303800E948F01089580E10E948F01089581E009
S11303900E948F01089582E00E948F0108958AB31C
S11303A0806F8ABB87B3886087BB87B3826087BB53
S11303B087B3846087BB82E00E948F0188E20E9439
S11303C08F018CE00E948F0186E00E948F0181E002
S11303D00E948F0187E893E10197F1F700C00000C4
S11303E008950F931F93CF93DF938C01C0E0D0E067
S11303F003C00E945F012196F801EC0FFD1F80816C
S11304008111F7CFDF91CF911F910F9108950F9331
S11304101F93CF93DF93CDB7DEB728970FB6F89429
S1130420DEBF0FBECDBFFC0140E050E033C09F01F2
S1130430ADECBCEC0E94D105969587959695879571
S1130440969587959C01220F331F880F991F880F5B
S1130450991F880F991F820F931F9F01281B390B27
S1130460C901DA01AA0FBB1F21E030E02C0F3D1FA8
S1130470A20FB31F8D939C939F01ADECBCEC0E9423
S1130480D105FC01F695E795F695E795F695E79580
S11304904F5F5F4F4430510554F204E010E083E0B5
S11304A090E01AC0FC01EE0FFF1F21E030E02C0F9A
S11304B03D1FE20FF31F20813181232B29F4009784
S11304C031F09C01C80105C020E030E002C020E00A
S11304D030E08C01C9010197992324F70FC0F8017A
S11304E0EE0FFF1F81E090E08C0F9D1FE80FF91FB6
S11304F08081805D0E945F010150110911237CF706
S113050028960FB6F894DEBF0FBECDBFDF91CF9112
S11305101F910F91089587B3806B87BB87B38F7B3F
S113052087BB88B3806188BB81E58DB98EB18E7F2E
S11305308EB988B38F7E88BB08958FB9779BFECF21
S113054008958FEF8FB9779BFECF8FB108952AB1AD
S113055028612AB920B5266820BD89B990BD0895BF
S11305602FEF89E698E1215080409040E1F700C0E8
S113057000000E94CF010E94790087E690E00E946B
S1130580A7020E948B020E94C7010E94CB0180E651
S113059090E00E94F1012FEF83ED90E32150804021
S11305A09040E1F700C000000E943C050E94F30265
S11305B080E090E00895CF93CFEF10C00E94DF0059
S11305C0C82F8F3F11F00E945F018FEF0E949D02A0
S11305D083ED90E30197F1F700C00000CF3F71F382
S11305E08C2FCF910895C0E0D0E002C0C4E0D0E0E9
S11305F0209721F50E94C7010E94CB0181E790E07A
S11306000E94F1010E94BF0180E890E00E94F10184
S11306100E94DB02813339F0823341F0833349F0A5
S1130620843361F409C0C1E0D0E008C0C2E0D0E086
S113063005C0C3E0D0E002C0C4E0D0E0C130D105C1
S113064009F06FC00E94C7010E94CB018FE890E0BF
S11306500E94F1010E94BF018EE990E00E94F10125
S11306600E94DB02182F813381F40E94C7010E948B
S1130670CB018FEA90E00E94F1010E94BF018CEB54
S113068090E00E94F101C5E0D0E0123381F40E94B1
S1130690C7010E94CB018DEC90E00E94F1010E9401
S11306A0BF018CEB90E00E94F101C6E0D0E013336F
S11306B081F40E94C7010E94CB018AED90E00E9460
S11306C0F1010E94BF018CEB90E00E94F101C7E0B0
S11306D0D0E0143381F40E94C7010E94CB0187EE5D
S11306E090E00E94F1010E94BF018CEB90E00E9417
S11306F0F101C8E0D0E0153381F40E94C7010E94E3
S1130700CB0184EF90E00E94F1010E94BF018CEBC9
S113071090E00E94F101C9E0D0E0103311F4C0E090
S1130720D0E0C530D105E9F40E94DB02182F8133F3
S113073049F481E00E949D0287EA91E60197F1F76E
S113074000C00000123349F482E00E949D02E7EAEF
S1130750F1E63197F1F700C00000103311F4C1E065
S1130760D0E0C630D105E9F40E94DB02182F8133B2
S113077049F483E00E949D0287EA91E60197F1F72C
S113078000C00000123349F484E00E949D02E7EAAD
S1130790F1E63197F1F700C00000103311F4C1E025
S11307A0D0E0C730D105E9F40E94DB02182F813371
S11307B049F485E00E949D0287EA91E60197F1F7EA
S11307C000C00000123349F486E00E949D02E7EA6B
S11307D0F1E63197F1F700C00000103311F4C1E0E5
S11307E0D0E0C830D105E9F40E94DB02182F813330
S11307F049F487E00E949D0287EA91E60197F1F7A8
S113080000C00000123349F488E00E949D02E7EA28
S1130810F1E63197F1F700C00000103311F4C1E0A4
S1130820D0E0C930D105E9F40E94DB02182F8133EE
S113083049F489E00E949D0287EA91E60197F1F765
S113084000C00000123349F480E00E949D02E7EAF0
S1130850F1E63197F1F700C00000103311F4C1E064
S1130860D0E0C230D10509F04CC00E94C7010E94FB
S1130870CB0181E091E00E94F1010E94BF018FE66B
S113088091E00E94F1010E94DB02182F813349F4A8
S11308908AE00E949D0287EA91E60197F1F700C081
S11308A00000123349F48BE00E949D02E7EAF1E66E
S11308B03197F1F700C00000133349F48CE00E9433
S11308C09D0287EA91E60197F1F700C00000143316
S11308D049F48DE00E949D02E7EAF1E63197F1F7D1
S11308E000C00000153349F48EE00E949D0287EA9F
S11308F091E60197F1F700C00000103311F4C0E055
S1130900D0E0C330D105B1F50E94C7010E94CB01EC
S11309108CE091E00E94F1010E94BF018DE191E021
S11309200E94F1010E94DB02182F813349F48FE009
S11309300E949D02E7EAF1E63197F1F700C000005A
S1130940123349F480EA0E949D0287EA91E60197F6
S1130950F1F700C00000133349F481EA0E949D02BC
S1130960E7EAF1E63197F1F700C00000103311F423
S1130970C0E0D0E0C430D105E1F40E94C7010E9478
S1130980CB018EE291E00E94F1010E94BF0185E358
S113099091E00E94F1010E94DB02843311F4CAE069
S11309A0D0E0853311F4CBE0D0E0803311F4C0E023
S11309B0D0E0CA30D105E9F50E94C7010E94CB01FD
S11309C082E491E00E94F1010E94BF0183E591E07D
S11309D00E94F10182EA0E949D0287EA91E6019752
S11309E0F1F700C000000E94A102282F30E0E7EADE
S11309F0F1E63197F1F700C000002F3F310519F0FF
S1130A00C9010E9407020E94A102282F30E0E7EAF0
S1130A10F1E63197F1F700C000002F3F310519F0DE
S1130A20C9010E9407020E94DB02803311F4C4E072
S1130A30D0E0CB30D10509F0DBCD0E94C7010E9484
S1130A40CB018AE591E00E94F1010E94BF0187E693
S1130A5091E00E94F1010E94DB02182F813319F406
S1130A6083EA0E949D02123319F484EA0E949D02D3
S1130A70103309F0BDCDBACDEF92FF920F931F93BF
S1130A80CF93DF9300D000D0CDB7DEB781E3898365
S1130A9082E38A8383E38B8384E38C830E94C7018C
S1130AA00E94CB0185E791E00E94F1010E94BF0101
S1130AB000E069C00E94DF00182F8F3F21F00E94E0
S1130AC05F0101C01FEF1F3FA9F3E1E0F0E0EC0F6D
S1130AD0FD1FEE0DFF1D8081181301C00F5F2FEF66
S1130AE0E21AF20A03C0E12CF12C00E084E0E816DB
S1130AF0F10444F30430F9F49FE32DE083E09150D2
S1130B0020408040E1F700C000000E94C3010E9421
S1130B10C3010E94C3010E94C30180E891E00E94C6
S1130B20F1019FE724E88EE1915020408040E1F7F5
S1130B3000C0000028C09FE32DE083E091502040D6
S1130B408040E1F700C000000E94C3010E94C3017D
S1130B500E94C3010E94C3018FE891E00E94F10149
S1130B609FE724E88EE1915020408040E1F700C0E7
S1130B7000000E94C7010E94CB0185E791E00E941A
S1130B80F1010E94BF01043009F0ADCF0F900F9026
S1130B900F900F90DF91CF911F910F91FF90EF90E5
S1130BA00895A29FB001B39FC001A39F700D811D42
S1130BB01124911DB29F700D811D1124911D089562
S1070BC0F894FFCFD3
S1130BC4536D61727420486F6D652050726F6A2E84
S1130BD40055736572204D6F64652020523A3100CC
S1130BE444696D3A322041433A33207E3A34005208
S1130BF4313A312052323A322052333A33005234A9
S1130C043A342052353A35205265742E3A30005223
S1130C146F6F6D31204C6967687473004F6E3A319D
S1130C24204F66663A32205265743A3000526F6F30
S1130C346D32204C696768747300526F6F6D332092
S1130C444C696768747300526F6F6D34204C696724
S1130C5468747300526F6F6D35204C6967687473E0
S1130C640044696D6D65723A317E350041697220C4
S1130C74436F6E642E204175746F3A31004F6E3A9F
S1130C8432204F66663A33205265743A3000546514
S1130C946D703A3400446F6F723A35205265743A79
S1130CA4300054656D702E205365742832317E32C1
S1130CB437290054656D702E3A00446F6F723A20E0
S1130CC44F70656E3A3100436C6F73653A3220524B
S1130CD465743A30005573657220506173733A0039
S1130CE452696768742050617373776F7264005734
S1110CF4726F6E672050617373776F726400C5
S9030000FC
